:020000040800F2
:100000009006002045010008650E0008670E0008F4
:100010006B0E00086F0E0008730E00080000000051
:10002000000000000000000000000000770E000843
:10003000790E0008000000007B0E00087D0E00080D
:100040005F0100085F0100085F0100085F01000810
:100050005F0100085F0100085F0100085F01000800
:100060005F0100085F0100085F0100085F010008F0
:100070005F0100085F0100085F0100085F010008E0
:100080005F0100085F0100085F0100085F010008D0
:100090005F0100085F0100085F0100085F010008C0
:1000A0005F0100085F0100085F0100085F010008B0
:1000B0005F0100085F0100085F0100085F010008A0
:1000C0005F0100085F0100085F0100085F01000890
:1000D0005F0100085F0100085F0100085F01000880
:1000E0005F0100085F0100085F0100085F01000870
:1000F0005F0100085F0100085F0100085F01000860
:100100005F0100085F0100085F0100085F0100084F
:100110005F0100085F0100085F0100085F0100083F
:100120005F0100085F0100085F0100085F0100082F
:10013000DFF80CD001F020FB00480047310E00082A
:10014000900600200648804706480047FEE7FEE785
:10015000FEE7FEE7FEE7FEE7FEE7FEE7FEE7FEE777
:1001600047020008310100080CB500200190009002
:100170006C48006840F480306A49086000BF6948F4
:10018000006800F4003000900198401C0190009835
:1001900018B90198B0F5A06FF1D16248006800F479
:1001A000003010B10120009001E000200090009884
:1001B000012843D15C48006840F010005A490860AB
:1001C0000846006820F0030008600846006840F018
:1001D0000200086053484068524948600846406839
:1001E00048600846406840F48060486008464068BF
:1001F00020F47C1048600846406840F4E8104860ED
:100200000846006840F08070086000BF45480068FC
:1002100000F000700028F9D04248406820F0030048
:10022000404948600846406840F00200486000BF0E
:100230003C48406800F00C000828F9D10CBD10B50E
:10024000FFF792FF10BD10B53648006840F001007E
:1002500034490860084640683449084031494860DC
:1002600008460068324908402E4908600846006880
:1002700020F4802008600846406820F4FE004860B2
:100280004FF41F008860FFF7DAFF4FF00060294944
:10029000086010BD10B5002100200022214B5B68D2
:1002A00003F00C0121B1042906D0082928D107E068
:1002B000214B224C236027E01F4B204C236023E07E
:1002C000184B5B6803F47010164B5B6803F48032C4
:1002D000022303EB904022B9194B4343174C236090
:1002E0000DE0104B5B6803F4003323B1144B434320
:1002F000124C236003E0104B4343104C236003E097
:100300000D4B0E4C236000BF00BF064B5B68C3F370
:1003100003130C4CE15C094B1B68CB40074C23607A
:1003200010BD000000100240002002400000FFF855
:10033000FFFFF6FE08ED00E000127A00000000204A
:1003400000093D000400002031490143314A116099
:10035000704770B5002100230F22C47804B32D4CE0
:10036000246804F4E064C4F5E064210AC1F10403E4
:10037000CA40447804FA03F1847814402143090107
:10038000254C0678A155047804F01F050124AC40E3
:1003900005786D11AD0005F1E025C5F8004109E0D3
:1003A000047804F01F050124AC401C4D067876113A
:1003B00045F8264070BD1A4A0A400243154B1B1FE0
:1003C0001A60704739B1134A121D12680243114B6B
:1003D0001B1D1A6006E00F4A121D126882430D4B66
:1003E0001B1D1A607047042808D14FF0E0210969ED
:1003F00041F004014FF0E022116107E04FF0E021ED
:10040000096921F004014FF0E022116170470000FA
:100410000000FA050CED00E000E400E080E100E0FF
:1004200080FFFF1F10B50446CC48844208D101214B
:10043000042000F02DFB0021042000F029FB46E001
:10044000C748844208D10121082000F021FB002187
:10045000082000F01DFB3AE0C248844208D1012187
:10046000102000F015FB0021102000F011FB2EE001
:10047000BD48844208D10121202000F009FB002161
:10048000202000F005FB22E0B848844208D1012179
:10049000402000F0FDFA0021402000F0F9FA16E0BB
:1004A000B348844208D10121802000F0F1FA0021F4
:1004B000802000F0EDFA0AE0AE48844207D1012125
:1004C000801500F0E5FA0021A01500F0E1FA10BD5A
:1004D00010B50121084600F0DBFA0021012000F0F0
:1004E000D7FA10BD2DE9F041024600250026002074
:1004F00000230024002791F803C00CF00F0591F8A9
:1005000003C00CF0100CBCF1000F03D091F802C036
:100510004CEA050591F800C0BCF1000F31D0146819
:1005200000202BE04FF0010C0CFA00F3B1F800C0F2
:100530000CEA03069E4220D183004FF00F0C0CFA08
:1005400003F7BC4305FA03FC4CEA040491F803C02A
:10055000BCF1280F06D14FF0010C0CFA00FCC2F8D8
:1005600014C00AE091F803C0BCF1480F05D14FF068
:10057000010C0CFA00FCC2F810C0401C0828D1D3B2
:100580001460B1F800C0BCF1FF0F34DD54680020E6
:100590002EE000F1080C4FF0010808FA0CF3B1F856
:1005A00000C00CEA03069E4221D183004FF00F0CDD
:1005B0000CFA03F7BC4305FA03FC4CEA040491F877
:1005C00003C0BCF1280F05D100F1080C08FA0CF8A3
:1005D000C2F8148091F803C0BCF1480F07D100F1B4
:1005E000080C4FF0010808FA0CF8C2F81080401C03
:1005F0000828CED35460BDE8F0814FF6FF7101802A
:10060000022181700421C170704702460020936866
:100610000B400BB1012000E00020704701468868C4
:1006200080B2704702460020D3680B400BB1012016
:1006300000E0002070470146C86880B27047016141
:100640007047416170470AB1016100E04161704744
:10065000C16070474FF480320A43826181618261D8
:1006600082698269704702460020434B18684FF642
:100670008073184040EA021008433F4B18607047EF
:100680003E49C8617047F0B50A46002300240021A6
:10069000002500F00046B6F1004F02D1364EF16958
:1006A00001E0354E7168C0F3034583B200F4401693
:1006B000B6F5401F08D121F070612F4E766826F004
:1006C00070662D4F7E6012E000F48016B6F5801F34
:1006D00006D1032606FA05F4A14341F0706106E055
:1006E000460D360103FA06F6B14341F0706122B1BE
:1006F000460D360103FA06F6314300F00046B6F126
:10070000004F02D11C4EF16101E01B4E7160F0BD43
:1007100030B500228B071C0F0F2303FA04F2164B8F
:1007200008338C1053F824309343134C08348D1045
:1007300044F8253023468C1053F824308C07240FBE
:1007400000FA04F423430C4C08348D1044F825308F
:1007500030BD0A49DC3108607047000000080140E4
:10076000000C01400010014000140140001801403D
:10077000001C014000200140000001400000204218
:10078000DF48006840F00100DD4908600846406825
:10079000DC490840DA49486008460068DA49084000
:1007A000D74908600846006820F4802008600846A1
:1007B000406820F4FE0048604FF41F0088607047D6
:1007C000CF49096821F48031CD4A1160114609688A
:1007D00021F480211160B0F5803F03D0B0F5802F67
:1007E0000ED106E0C649096841F48031C44A11605F
:1007F00007E0C349096841F4A021C14A116000E043
:1008000000BF00BF704710B5014600220023002042
:100810004A11012A02D1BA4C236806E0022A02D109
:10082000B74C236A01E0B64C636A01F01F02012451
:1008300094401C400CB1012000E0002010BD38B5F0
:10084000002000900024002500BF3120FFF7DBFFCF
:1008500005460098401C00900098B0F5A06F01D0AC
:10086000002DF2D03120FFF7CEFF08B1012400E0C7
:100870000024204638BD01460020A14A106820F01F
:10088000F80040EAC10010607047A0490860704756
:10089000024600209A4B586820F47C1042EA01037B
:1008A0001843974B5860704798490866704701464F
:1008B0000020934A506820F00300084350607047BE
:1008C0008F48406800F00C007047014600208C4AB9
:1008D000506820F0F0000843506070470146002047
:1008E000874A506820F4E060084350607047014632
:1008F0000020834A506820F4605040EAC1005060F4
:10090000704729B17E4A527A02437D4B5A7204E005
:100910007B4A527A82437A4B5A7270477B49D8316C
:100920000860704701460020754A506820F4404036
:100930000843506070470021714A20321170704A9C
:1009400082F82010012802D004280AD104E00121F5
:100950006B4A2032117005E00521694A203211707E
:1009600000E000BF00BF70476949086070476449F4
:10097000096A0143624A1162704765494439086057
:10098000704730B500210022002400235C4D6D68C3
:1009900005F00C0121B1042905D0082923D105E077
:1009A0005C4D056022E05B4D05601FE0544D6D68B5
:1009B00005F47012524D6D6805F48034022505EB84
:1009C00092421CB9544D554305600BE04C4D6D6887
:1009D00005F400351DB1504D5543056002E04D4D05
:1009E0005543056002E04B4D056000BF00BF444D1C
:1009F0006D6805F0F0010909484D6B5C0568DD4044
:100A000045603F4D6D6805F4E061090A434D6B5C3C
:100A10004568DD4085603A4D6D6805F46051C90A4E
:100A20003E4D6B5C4568DD40C560354D6D6805F435
:100A30004041890B3A4D6B5CC568B5FBF3F5056128
:100A400030BD29B12E4A526902432D4B5A6104E050
:100A50002B4A526982432A4B5A61704729B1284A6E
:100A600092690243264B9A6104E0254A92698243C7
:100A7000234B9A61704729B1214AD2690243204B26
:100A8000DA6104E01E4AD26982431D4BDA61704785
:100A900029B11B4AD2680243194BDA6004E0184AB4
:100AA000D2688243164BDA60704729B1144A126942
:100AB0000243134B1A6104E0114A12698243104B3E
:100AC0001A61704712494039086070470F49C8647D
:100AD00070470B49C87170470948406A40F0807000
:100AE00007494862704701460020054A92680A405B
:100AF0000AB1012000E00020704701498872704768
:100B0000001002400000FFF8FFFFF6FE0000424226
:100B10008004424200127A0000093D0014000020C7
:100B20002400002010B50446BE48844208D10121AB
:100B30008014FFF7ADFF0021A014FFF7A9FF16E016
:100B4000B948844208D101210014FFF7AEFF00210B
:100B50002014FFF7AAFF0AE0B448844207D101211C
:100B6000C013FFF7A2FF0021E013FFF79EFF10BDA7
:100B700010B50022028802F441520B884C882343AE
:100B80008C882343CC8823430C8923434C892343FB
:100B90008C892343CC8923431A430280838B4FF2F1
:100BA000FF74234083830B8A038210BD2DE9F04F2D
:100BB00085B005460C464FF0000902274FF00008AB
:100BC0004FF0010B0026B246A88B4FF240010840BF
:100BD000A88302202884B5F81C90A068022801D1BF
:100BE00000BF38E0A08810B94FF0010B01E04FF0D2
:100BF000020B8D48854200D100E000BF6846FFF738
:100C0000C0FEDDF800A0E088B0F5007F0AD14FEA11
:100C10001A2000EB80004000A168B0FBF1F0401DFD
:100C200086B20BE04FEA4B10BAFBF0F000EB80000D
:100C30004000A168B0FBF1F0401D86B20A20B6FB6F
:100C4000F0F606F00108A6EB0800C0F34F074FF6D8
:100C5000FF7000EA0828022F01DBFF2F02DD0227C8
:100C60004FF00008E08840EA080038432884A08854
:100C7000A1890843618808432188084340F4006043
:100C800040EA0909A5F81C9005B0BDE8F08F0021E5
:100C9000018041808180C180018141818181C18148
:100CA0000721018270470021018041808180C1803D
:100CB0000221816000218181704721B1028842F0C8
:100CC0004002028004E002884FF6BF731A4002809F
:100CD000704721B1828B42F48062828304E0828B70
:100CE0004FF6FF331A408283704730B5002400234B
:100CF0000C110125A540ABB21AB185881D43858032
:100D000002E085889D43858030BD1AB183880B43FE
:100D1000838002E083888B438380704781817047A2
:100D20000146888970474FF6FF62914204D00288DD
:100D300042F48072028004E002884FF6FF631A409A
:100D40000280704721B1828842F00402828004E070
:100D500082884FF6FB731A408280704702884FF2F8
:100D6000FF731A40028002880A430280704701889C
:100D700041F480510180704721B1028842F4005251
:100D8000028004E002884DF6FF731A40028070472B
:100D900002460020012901D0108B00E0908A7047A4
:100DA0000146088A7047B1F5804F04D1028842F4A9
:100DB0008042028004E002884BF6FF731A400280F2
:100DC00070470246002013890B400BB1012000E060
:100DD00000207047CA4302817047F0B502460020E8
:100DE00000240023002501F00F070126BE40B4B205
:100DF0000B1101269E40B3B2968806EA03051689B8
:100E0000264016B10DB1012000E00020F0BD10B564
:100E1000002201F00F040123A3409AB2D3430381BF
:100E200010BD00000030014000380040003C004090
:100E300010B5502000F024F800F0A3FA00F00AFBEF
:100E4000042300221146054800F02DFC0423032250
:100E50000021034800F027FC002010BD28000020DE
:100E600031000020704700BFFEE700BFFEE700BF73
:100E7000FEE700BFFEE77047704770477047704756
:100E800010B504466FF00400FFF7ADFAE11704EB6C
:100E90005171C1F3C7012B4A11701046007800EB65
:100EA0004001C1EBC0104FF6FF7101EAC0002649B6
:100EB000088010BD0146234A12784A434FF0E023D0
:100EC0005A6100229A611A46126942F001021A61BF
:100ED00000BF4FF0E022106900F001021AB100F4E7
:100EE0008032002AF5D04FF0E022126922F0010290
:100EF0004FF0E0231A6100229A6170470146124ABE
:100F000012884A434FF0E0235A6100229A611A4640
:100F1000126942F001021A6100BF4FF0E02210692D
:100F200000F001021AB100F48032002AF5D04FF02F
:100F3000E022126922F001024FF0E0231A61002240
:100F40009A6170473A0000203C00002008B501215A
:100F50000820FFF783FD10208DF803008001ADF815
:100F6000000003208DF802006946FE48FFF7BAFA38
:100F70004FF40060ADF800006946FA48FFF7B2FA96
:100F800008BD08B510208DF80300C001ADF80000C1
:100F900003208DF802006946F248FFF7A3FA08BD66
:100FA00008B548208DF803004FF40060ADF800004C
:100FB00003208DF802006946EA48FFF793FA08BD5E
:100FC00010B5FFF7DEFF0220FFF774FF4FF48061DA
:100FD000E448FFF734FB4FF40061E248FFF72FFBD2
:100FE0000220FFF767FF4FF40061DE48FFF729FB9F
:100FF0000220FFF75FFF4FF48061DA48FFF721FB23
:101000000220FFF757FF10BD10B5FFF7BAFF02200F
:10101000FFF750FF4FF48061D248FFF710FB4FF409
:101020000061D048FFF70DFB0220FFF743FF4FF4AC
:101030000061CC48FFF703FB0220FFF73BFF10BD28
:1010400010B54FF48061C748FFF7F9FA4FF480619B
:10105000C448FFF7F6FA10BD70B50446FFF791FFDC
:10106000002526E04FF48061BE48FFF7EAFA02202F
:10107000FFF720FF04F0800028B14FF40061B94869
:10108000FFF7DDFA04E04FF40061B648FFF7D9FA44
:101090004FF48061B348FFF7D2FA0220FFF70AFF4E
:1010A0004FF48061AF48FFF7CCFA6006040E681C6D
:1010B000C5B2082DD6DB70BD10B50446FFF780FF22
:1010C0007820FFF7C9FFFFF7BBFF0020FFF7C4FF41
:1010D000FFF7B6FF2046FFF7BFFFFFF7B1FFFFF7AF
:1010E00093FF10BD10B50446FFF76AFF7820FFF7A5
:1010F000B3FFFFF7A5FF4020FFF7AEFFFFF7A0FF0C
:101100002046FFF7A9FFFFF79BFFFFF77DFF10BD0C
:1011100010B56420FFF7F2FEAE20FFF7CDFF2020D0
:10112000FFF7CAFF1020FFF7C7FFB020FFF7C4FF8B
:10113000C820FFF7C1FF0020FFF7BEFF1020FFF718
:10114000BBFF4020FFF7B8FFFF20FFF7B5FFA1204E
:10115000FFF7B2FFA620FFF7AFFFA820FFF7ACFF15
:101160003F20FFF7A9FFA420FFF7A6FFD320FFF73A
:10117000A3FF0020FFF7A0FFD520FFF79DFFF02081
:10118000FFF79AFFD920FFF797FF2220FFF794FF80
:10119000DA20FFF791FF1220FFF78EFFDB20FFF729
:1011A0008BFF2020FFF788FF8D20FFF785FF14209D
:1011B000FFF782FFAF20FFF77FFF10BD70B500245F
:1011C00015E004F1B001C8B2FFF776FF0020FFF789
:1011D00073FF1020FFF770FF002504E00020FFF7E9
:1011E00081FF681CC5B2802DF8DB601CC4B2082CDE
:1011F000E7DB70BD70B504460D4605F1B001C8B21D
:10120000FFF75AFF102141EA1410FFF755FF04F0D1
:101210000F00FFF751FF70BD2DE9F04780460F46E4
:1012200014461E460A2094FBF0F100FB114000F02A
:10123000FF09A4EB09000A2190FBF1F000F0FF0A7E
:1012400039464046FFF7D6FF062E0FD100250BE0AA
:10125000A4F1200101EB4101434A02EB4101485D49
:10126000FFF740FF681CC5B2062DF1DB102E25D11B
:1012700039464046FFF7BEFF002509E0A4F12001F2
:101280003A4A02EB0111485DFFF72CFF681CC5B21A
:10129000082DF3DB781CC1B24046FFF7ABFF0825F1
:1012A00009E0A4F12001314A02EB0111485DFFF78A
:1012B00019FF681CC5B2102DF3DB00BFBDE8F08735
:1012C0002DE9F05F07468B46904699464FF0000A9D
:1012D000002659463846FFF78DFF4CE018F8060007
:1012E0002038C5B2B9F1060F0FD1002409E005EB93
:1012F00045011D4A02EB4101085DFFF7F3FE601C4A
:10130000C4B2062CF3DB701CC6B2B9F1100F32D197
:10131000002407E0154901EB0511085DFFF7E2FE27
:10132000601CC4B2082CF5DB0BF10102D1B207EB53
:101330000A02D0B2FFF75EFF082407E00B4901EB79
:101340000511085DFFF7CEFE601CC4B2102CF5DB62
:10135000701CC6B20AF1080000F0FF0A07EB0A0190
:10136000C8B205E0000C01403E0000209A190008B8
:101370005946FFF73FFF18F806000028AED1BDE838
:10138000F09F10B5FFF7E2FDFFF7C2FEFFF716FF73
:1013900010BD2DE9F04107460E4615463146384648
:1013A000FFF728FF002404E0285DFFF79BFE601C88
:1013B000C4B2102CF8DB701CC1B23846FFF71AFF1C
:1013C000102404E0285DFFF78DFE601CC4B2202CC1
:1013D000F8DBBDE8F081000008B501210420FFF72B
:1013E0003DFB01210820FFF739FB01210820FFF711
:1013F00035FB01210820FFF731FB01218803FFF7AE
:101400003AFB10208DF80300C001ADF80000032066
:101410008DF802006946B948FFF764F818208DF886
:1014200003004FF40050ADF800006946B448FFF7E0
:1014300059F84FF48040ADF800006946B048FFF716
:1014400051F84FF40040ADF800006946AC48FFF792
:1014500049F808BD00B585B0FFF7BEFF0020ADF824
:1014600000004FF48270ADF802000020ADF80400D7
:101470000220ADF806000120ADF808004002ADF8EA
:101480000A000820ADF80C000020ADF80E0007207F
:10149000ADF8100069469B48FFF76AFB01219948A7
:1014A000FFF70BFC05B000BD10B50446214696A021
:1014B00000F0A0F9002010BD10B504464FF4805094
:1014C0009449086008E093490868411E914A1160F8
:1014D00010B90020FFF7E8FF02218A48FFF771FCEE
:1014E0000028F0D021468748FFF718FC4FF48050C1
:1014F0008849086008E087490868411E854A1160EC
:1015000010B90120FFF7D0FF01217E48FFF759FCF9
:101510000028F0D07B48FFF703FCC0B210BD10B527
:10152000FF20FFF7C9FF10BD10B54FF400617348ED
:10153000FFF787F80620FFF7BFFF4FF400616F4801
:10154000FFF77DF810BD10B500244FF400616B4823
:10155000FFF777F80520FFF7AFFF00BFFF20FFF789
:10156000ABFF044604F001000028F7D14FF40061FE
:101570006248FFF764F810BD10B50446FFF7D4FFCA
:10158000FFF7E1FF4FF400615C48FFF75AF82020B5
:10159000FFF792FFC4F30740FFF78EFFC4F3072065
:1015A000FFF78AFFE0B2FFF787FF4FF4006153486F
:1015B000FFF745F8FFF7C7FF10BD70B504460D46AD
:1015C0001646FFF7B1FFFFF7BEFF4FF400614B482F
:1015D000FFF737F80220FFF76FFFC4F30740FFF76C
:1015E0006BFFC4F30720FFF767FFE0B2FFF764FF6C
:1015F000B6F5807F04DD4FF4807647A000F0FAF85E
:1016000003E02878FFF758FF6D1C301EA6F101019A
:101610008EB2F6D14FF400613848FFF710F8FFF7AB
:1016200092FF70BD70B504460D461646FFF77CFF6D
:10163000FFF789FF4FF400613048FFF702F80320FD
:10164000FFF73AFFC4F30740FFF736FFC4F3072064
:10165000FFF732FFE0B2FFF72FFF04E0FF20FFF7B4
:101660002BFF28706D1C301EA6F101018EB2F5D142
:101670004FF400612148FEF7E2FF70BD38B5024625
:101680008DF800208DF8011000BF9DF80040A4F1F6
:10169000B0034FF4486403FB04F59DF80140A03CFF
:1016A00005EB441038BD2DE9F04399B006460F46CE
:1016B00090461D463146684600F03EF8002416E08C
:1016C000621C1DF802101DF80400FFF7D7FF8146C9
:1016D00020221849FFF7A6FF4FEA041909EBD97138
:1016E00007EB6100134A4146FFF753FEA41CB4EB1D
:1016F000450FE5DB19B0BDE8F083000000080140AC
:10170000000C0140003800404552524F52204F4ECD
:1017100020256400680200204552524F5220544850
:1017200045204E554D20495320544F4F204C415297
:101730004745000070020020034611F8012B00F815
:10174000012B002AF9D11846704730B50B460146E7
:1017500000202022012409E021FA02F59D4205D350
:1017600003FA02F5491B04FA02F52844151EA2F1FA
:101770000102F1DC30BD0000064C074D06E0E068D8
:1017800040F0010394E8070098471034AC42F6D3C8
:10179000FEF7D2FC8C1F0008AC1F000870B58C1837
:1017A00010F8015B15F0070301D110F8013B2A1175
:1017B00006D110F8012B03E010F8016B01F8016B62
:1017C0005B1EF9D12B0705D40023521E0DD401F85E
:1017D000013BFAE710F8013BCB1A921C03E013F827
:1017E000015B01F8015B521EF9D5A142D8D300205C
:1017F00070BD00000FB4054B10B503A9044A029850
:1018000000F018F810BC5DF814FB000089190008FE
:101810006C02002002E008C8121F08C1002AFAD199
:1018200070477047002001E001C1121F002AFBD160
:10183000704700002DE9FF4F89B09B460446002504
:1018400006E025280BD05A460B999047641C6D1C66
:1018500020780028F5D10DB02846BDE8F08F00278C
:10186000B8460122474900E0074314F8013F203BF6
:1018700002FA03F00842F7D120782E2819D114F883
:10188000010F47F004072A280ED06FF02F022078AE
:10189000A0F1300109290CD808EB880102EB4101C5
:1018A00000EB0108641CF2E70A98641C50F8048BF2
:1018B0000A9020780028CED0642808D0692806D065
:1018C00075281ED05A460B9990476D1C58E00A990E
:1018D0004FF00A0901C90A91002802DA40422D217D
:1018E00002E0390504D52B218DF82010012103E0F9
:1018F000F90704D02021F7E78A4608AE0DE0002161
:10190000FAE70A994FF00A0901C90A91F7E749462F
:10191000FFF71BFF303106F8011D0028F7D1ADEBB2
:10192000060000F12009780701D44FF00108C845EE
:1019300002DDA8EB090000E000208046002706E059
:1019400008A85A46C05D0B9990476D1C7F1C5745EF
:10195000F6DB04E030205A460B9990476D1CB8F135
:101960000001A8F10108F5DC05E016F8010B5A4664
:101970000B9990476D1CB9F10001A9F10109F4DC44
:10198000641C65E70928010038B504468DF800009D
:1019900069460320ABBE204638BD000000000000B1
:1019A00000000000000000000000000000F800003F
:1019B0000000000000333000000000100C06100C86
:1019C0000600000000000000000040C07840C07821
:1019D0004000043F04043F040400007088FC083009
:1019E0000000001820FF211E0000F008F000E018A1
:1019F000000000211C031E211E0000F0088870005A
:101A000000001E2123241927211010160E000000AB
:101A100000000000000000000000000000E01804CA
:101A20000200000000071820400000020418E00037
:101A300000000040201807000000404080F0804077
:101A400040000202010F01020200000000F000004D
:101A500000000101011F0101010000000000000061
:101A6000000080B0700000000000000000000000D6
:101A7000000000010101010101010000000000005F
:101A80000000003030000000000000000000806016
:101A90001804006018060100000000E0100808109B
:101AA000E000000F102020100F00001010F80000C0
:101AB00000000020203F2020000000700808088857
:101AC0007000003028242221300000300888884827
:101AD00030000018202020110E000000C02010F857
:101AE000000000070424243F240000F80888880828
:101AF00008000019212020110E0000E0108888182D
:101B00000000000F112020110E0000380808C8380E
:101B100008000000003F00000000007088080888EE
:101B20007000001C222121221C0000E01008081077
:101B3000E0000000312222110F00000000C0C000B0
:101B400000000000003030000000000000800000B5
:101B500000000000806000000000000080402010B5
:101B600008000001020408102000404040404040AE
:101B70004000040404040404040000081020408011
:101B80000000002010080402010000704808080846
:101B9000F0000000003036010000C030C828E81016
:101BA000E0000718272423140B000000C038E000D1
:101BB0000000203C23020227382008F8888888701B
:101BC0000000203F202020110E00C0300808080827
:101BD0003800071820202010080008F8080808100E
:101BE000E000203F202020100F0008F88888E80837
:101BF0001000203F20202320180008F88888E808DB
:101C00001000203F200003000000C0300808083802
:101C1000000007182020221E020008F80800000813
:101C2000F808203F210101213F20000808F808089A
:101C300000000020203F2020000000000808F808D5
:101C40000800C08080807F00000008F888C0281845
:101C50000800203F20012638200008F80800000076
:101C60000000203F20202020300008F8F800F8F87D
:101C70000800203F003F003F200008F830C0000867
:101C8000F808203F200007183F00E010080808105F
:101C9000E0000F10202020100F0008F808080808A6
:101CA000F000203F210101010000E01008080810A9
:101CB000E0000F18242438504F0008F888888888DE
:101CC0007000203F2000030C3020007088080808B6
:101CD00038000038202121221C00180808F80808C4
:101CE00018000000203F2000000008F8080000084D
:101CF000F808001F202020201F000878880000C856
:101D00003808000007380E010000F80800F8000845
:101D1000F800033C0700073C03000818688080684F
:101D2000180820302C03032C30200838C800C8388D
:101D300008000000203F2000000010080808C838F4
:101D400008002038262120201800000000FE020292
:101D500002000000007F40404000000C30C0000046
:101D60000000000000010638C00000020202FE0070
:101D70000000004040407F0000000000040202021A
:101D8000040000000000000000000000000000004F
:101D9000000080808080808080800002020400003B
:101DA0000000000000000000000000008080808033
:101DB00000000019242222223F2008F80080800021
:101DC0000000003F112020110E00000000808080E4
:101DD0000000000E112020201100000000808088EB
:101DE000F800000E112020103F200000808080802D
:101DF0000000001F222222221300008080F0888829
:101E000088180020203F2020000000008080808073
:101E10008000006B94949493600008F800808080A8
:101E20000000203F210000203F2000809898000003
:101E300000000020203F2020000000000080989833
:101E4000000000C08080807F000008F800008080D3
:101E50008000203F24022D302000000808F80000F8
:101E600000000020203F20200000808080808080B3
:101E70008000203F20003F20003F80800080808045
:101E80000000203F210000203F2000008080808053
:101E90000000001F202020201F0080800080800084
:101EA000000080FFA12020110E0000000080808033
:101EB0008000000E112020A0FF80808080008080A4
:101EC000800020203F2120000100000080808080D1
:101ED00080000033242424241900008080E08080C6
:101EE00000000000001F2020000080800000008013
:101EF0008000001F202020103F2080808000008074
:101F0000808000010E300806010080800080008083
:101F100080800F300C030C300F0000808000808028
:101F200080000020312E0E31200080808000008053
:101F3000808080818E701806010000808080808003
:101F400080000021302C2221300000000000807C25
:101F5000020200000000003F404000000000FF00BF
:101F6000000000000000FF0000000002027C800072
:101F700000000040403F0000000000060101020296
:101F8000040400000000000000000000AC1F000876
:101F900000000020700200009C1700089421000837
:101FA0007002002020040000241800081184A24AB6
:101FB00004680901020304060708090C6910100DE2
:101FC00002040608B9F4BAF4BFD5C4CBE009C9C00D
:101FD000CECAD3CBB0CB422F1A0702111B147F02FB
:101FE0001116242A7F2A1216626408132326364902
:101FF000552250430503341C22411C41221C2A1542
:10200000083E08141A0806320823A0602A08012195
:102010001A600B11162010080402263E5149453E55
:102020001C427F40051561514946162141454B31FF
:10203000161814127F10162745454539163C4A4993
:1020400049301C017109621636494949362606494C
:1020500049291E4336362A56062B0814782A1401BD
:10206000297E1314081602015109061632495951E6
:102070003E167C1211127C3A7F3C163E41414122B1
:102080001A7F053A1C1212411E7F09090901181412
:1020900049497A1A7FA11A7F421A7F4E1E20404179
:1020A0003F0112295B1B7F400111167F020C027F4A
:1020B0003E7F0408107F483A3E3C1A060C1C512112
:1020C0005E0C141929461A465412311601017F017B
:1020D000011A3F35123F1E1F2040201F0C1A380CDA
:1020E00016631408146316070870080719EF2345D0
:1020F00043198B211B552A0219781A417D160402B7
:1021000001020429712240290B11162054545478DD
:10211000167F484444382E38444444200613487FF0
:102120001A3818121816087E0901021D18A4A4A452
:10213000E425080404781B447D3B1D4080847D5FBA
:10214000341028441B417F121C7C04181E3A7C2446
:102150002948123816FC242424181A18053AFC18A9
:1021600012081A4854122016043F444020163C40DE
:1021700040207C1A1CC01A1C0C1430403C2B4428F4
:102180004F161CA0A0A07C3F4464544C4414013161
:0421900062A0000049
:0400000508000131BD
:00000001FF
